{
  "contractName": "Auth",
  "abi": [
    {
      "anonymous": false,
      "inputs": [
        {
          "indexed": false,
          "internalType": "string",
          "name": "username",
          "type": "string"
        },
        {
          "indexed": false,
          "internalType": "string",
          "name": "email",
          "type": "string"
        },
        {
          "indexed": false,
          "internalType": "string",
          "name": "password",
          "type": "string"
        }
      ],
      "name": "userCreated",
      "type": "event"
    },
    {
      "inputs": [],
      "name": "userCount",
      "outputs": [
        {
          "internalType": "uint256",
          "name": "",
          "type": "uint256"
        }
      ],
      "stateMutability": "view",
      "type": "function"
    },
    {
      "inputs": [
        {
          "internalType": "string",
          "name": "",
          "type": "string"
        }
      ],
      "name": "usersList",
      "outputs": [
        {
          "internalType": "string",
          "name": "username",
          "type": "string"
        },
        {
          "internalType": "string",
          "name": "email",
          "type": "string"
        },
        {
          "internalType": "string",
          "name": "password",
          "type": "string"
        }
      ],
      "stateMutability": "view",
      "type": "function"
    },
    {
      "inputs": [
        {
          "internalType": "string",
          "name": "_username",
          "type": "string"
        },
        {
          "internalType": "string",
          "name": "_email",
          "type": "string"
        },
        {
          "internalType": "string",
          "name": "_password",
          "type": "string"
        }
      ],
      "name": "createUser",
      "outputs": [],
      "stateMutability": "nonpayable",
      "type": "function"
    }
  ],
  "bytecode": "0x60806040525f8055348015610012575f80fd5b50610a46806100205f395ff3fe608060405234801561000f575f80fd5b506004361061003f575f3560e01c806307973ccf146100435780634cbce6ac1461006157806359ae069b14610093575b5f80fd5b61004b6100af565b604051610058919061036e565b60405180910390f35b61007b600480360381019061007691906104d4565b6100b4565b60405161008a93929190610595565b60405180910390f35b6100ad60048036038101906100a891906105df565b610284565b005b5f5481565b6001818051602081018201805184825260208301602085012081835280955050505050505f91509050805f0180546100eb906106b0565b80601f0160208091040260200160405190810160405280929190818152602001828054610117906106b0565b80156101625780601f1061013957610100808354040283529160200191610162565b820191905f5260205f20905b81548152906001019060200180831161014557829003601f168201915b505050505090806001018054610177906106b0565b80601f01602080910402602001604051908101604052809291908181526020018280546101a3906106b0565b80156101ee5780601f106101c5576101008083540402835291602001916101ee565b820191905f5260205f20905b8154815290600101906020018083116101d157829003601f168201915b505050505090806002018054610203906106b0565b80601f016020809104026020016040519081016040528092919081815260200182805461022f906106b0565b801561027a5780601f106102515761010080835404028352916020019161027a565b820191905f5260205f20905b81548152906001019060200180831161025d57829003601f168201915b5050505050905083565b5f808154809291906102959061070d565b91905055506040518060600160405280848152602001838152602001828152506001836040516102c5919061078e565b90815260200160405180910390205f820151815f0190816102e69190610941565b5060208201518160010190816102fc9190610941565b5060408201518160020190816103129190610941565b509050507fc50aadd178489c438b87db1b844b2d3380597c1c38fbcb15977a662c4404672e83838360405161034993929190610595565b60405180910390a1505050565b5f819050919050565b61036881610356565b82525050565b5f6020820190506103815f83018461035f565b92915050565b5f604051905090565b5f80fd5b5f80fd5b5f80fd5b5f80fd5b5f601f19601f8301169050919050565b7f4e487b71000000000000000000000000000000000000000000000000000000005f52604160045260245ffd5b6103e6826103a0565b810181811067ffffffffffffffff82111715610405576104046103b0565b5b80604052505050565b5f610417610387565b905061042382826103dd565b919050565b5f67ffffffffffffffff821115610442576104416103b0565b5b61044b826103a0565b9050602081019050919050565b828183375f83830152505050565b5f61047861047384610428565b61040e565b9050828152602081018484840111156104945761049361039c565b5b61049f848285610458565b509392505050565b5f82601f8301126104bb576104ba610398565b5b81356104cb848260208601610466565b91505092915050565b5f602082840312156104e9576104e8610390565b5b5f82013567ffffffffffffffff81111561050657610505610394565b5b610512848285016104a7565b91505092915050565b5f81519050919050565b5f82825260208201905092915050565b5f5b83811015610552578082015181840152602081019050610537565b5f8484015250505050565b5f6105678261051b565b6105718185610525565b9350610581818560208601610535565b61058a816103a0565b840191505092915050565b5f6060820190508181035f8301526105ad818661055d565b905081810360208301526105c1818561055d565b905081810360408301526105d5818461055d565b9050949350505050565b5f805f606084860312156105f6576105f5610390565b5b5f84013567ffffffffffffffff81111561061357610612610394565b5b61061f868287016104a7565b935050602084013567ffffffffffffffff8111156106405761063f610394565b5b61064c868287016104a7565b925050604084013567ffffffffffffffff81111561066d5761066c610394565b5b610679868287016104a7565b9150509250925092565b7f4e487b71000000000000000000000000000000000000000000000000000000005f52602260045260245ffd5b5f60028204905060018216806106c757607f821691505b6020821081036106da576106d9610683565b5b50919050565b7f4e487b71000000000000000000000000000000000000000000000000000000005f52601160045260245ffd5b5f61071782610356565b91507fffffffffffffffffffffffffffffffffffffffffffffffffffffffffffffffff8203610749576107486106e0565b5b600182019050919050565b5f81905092915050565b5f6107688261051b565b6107728185610754565b9350610782818560208601610535565b80840191505092915050565b5f610799828461075e565b915081905092915050565b5f819050815f5260205f209050919050565b5f6020601f8301049050919050565b5f82821b905092915050565b5f600883026108007fffffffffffffffffffffffffffffffffffffffffffffffffffffffffffffffff826107c5565b61080a86836107c5565b95508019841693508086168417925050509392505050565b5f819050919050565b5f61084561084061083b84610356565b610822565b610356565b9050919050565b5f819050919050565b61085e8361082b565b61087261086a8261084c565b8484546107d1565b825550505050565b5f90565b61088661087a565b610891818484610855565b505050565b5b818110156108b4576108a95f8261087e565b600181019050610897565b5050565b601f8211156108f9576108ca816107a4565b6108d3846107b6565b810160208510156108e2578190505b6108f66108ee856107b6565b830182610896565b50505b505050565b5f82821c905092915050565b5f6109195f19846008026108fe565b1980831691505092915050565b5f610931838361090a565b9150826002028217905092915050565b61094a8261051b565b67ffffffffffffffff811115610963576109626103b0565b5b61096d82546106b0565b6109788282856108b8565b5f60209050601f8311600181146109a9575f8415610997578287015190505b6109a18582610926565b865550610a08565b601f1984166109b7866107a4565b5f5b828110156109de578489015182556001820191506020850194506020810190506109b9565b868310156109fb57848901516109f7601f89168261090a565b8355505b6001600288020188555050505b50505050505056fea2646970667358221220d50da76a123ed191899b854a501cb9a79ef86209afa93214508eb38ad0a8385964736f6c63430008150033",
  "immutableReferences": {},
  "source": "// SPDX-License-Identifier: MIT\npragma solidity >=0.4.22 <0.9.0;\n\ncontract Auth{\n    \n    uint public userCount=0;\n\n    mapping(string => user) public usersList;\n\n     struct user{\n      string username;\n      string email;\n      string password;\n  }\n\n   // events\n\n   event userCreated(\n      string username,\n      string email,\n      string password\n    );\n\n  function createUser(string memory _username,string memory _email,string memory _password ) public {\n      \n        userCount++;\n\n        usersList[_email] = user(_username,_email,_password);\n      \n        emit userCreated(_username,_email,_password);\n    }\n\n\n}",
  "sourcePath": "D:\\\\my-identy-project\\contracts\\Auth.sol",
  "compiler": {
    "name": "solc",
    "version": "0.8.21+commit.d9974bed.Emscripten.clang"
  },
  "schemaVersion": "3.4.16",
  "updatedAt": "2024-07-16T20:14:22.462Z",
  "devdoc": {
    "kind": "dev",
    "methods": {},
    "version": 1
  },
  "userdoc": {
    "kind": "user",
    "methods": {},
    "version": 1
  }
}